{
    "_format": "hh-sol-artifact-1",
    "contractName": "PendingPool",
    "sourceName": "contracts/PendingPool.sol",
    "abi": [
        {
            "anonymous": false,
            "inputs": [
                {
                    "indexed": false,
                    "internalType": "uint8",
                    "name": "version",
                    "type": "uint8"
                }
            ],
            "name": "Initialized",
            "type": "event"
        },
        {
            "anonymous": false,
            "inputs": [
                {
                    "indexed": true,
                    "internalType": "address",
                    "name": "previousOwner",
                    "type": "address"
                },
                {
                    "indexed": true,
                    "internalType": "address",
                    "name": "newOwner",
                    "type": "address"
                }
            ],
            "name": "OwnershipTransferred",
            "type": "event"
        },
        {
            "anonymous": false,
            "inputs": [
                {
                    "indexed": false,
                    "internalType": "address",
                    "name": "Recepient",
                    "type": "address"
                },
                {
                    "indexed": false,
                    "internalType": "uint256",
                    "name": "Value",
                    "type": "uint256"
                },
                {
                    "indexed": false,
                    "internalType": "address",
                    "name": "Token",
                    "type": "address"
                }
            ],
            "name": "PaymentRedeemed",
            "type": "event"
        },
        {
            "inputs": [
                {
                    "internalType": "contract IERC20Upgradeable",
                    "name": "_token",
                    "type": "address"
                }
            ],
            "name": "balanceOf",
            "outputs": [
                {
                    "internalType": "uint256",
                    "name": "",
                    "type": "uint256"
                }
            ],
            "stateMutability": "view",
            "type": "function"
        },
        {
            "inputs": [],
            "name": "candidate",
            "outputs": [
                {
                    "internalType": "address",
                    "name": "",
                    "type": "address"
                }
            ],
            "stateMutability": "view",
            "type": "function"
        },
        {
            "inputs": [
                {
                    "internalType": "contract IERC20Upgradeable",
                    "name": "_token",
                    "type": "address"
                },
                {
                    "internalType": "uint256",
                    "name": "_value",
                    "type": "uint256"
                }
            ],
            "name": "deposit",
            "outputs": [],
            "stateMutability": "nonpayable",
            "type": "function"
        },
        {
            "inputs": [],
            "name": "initialize",
            "outputs": [],
            "stateMutability": "nonpayable",
            "type": "function"
        },
        {
            "inputs": [],
            "name": "owner",
            "outputs": [
                {
                    "internalType": "address",
                    "name": "",
                    "type": "address"
                }
            ],
            "stateMutability": "view",
            "type": "function"
        },
        {
            "inputs": [
                {
                    "internalType": "contract IERC20Upgradeable",
                    "name": "_token",
                    "type": "address"
                },
                {
                    "internalType": "address",
                    "name": "_recipient",
                    "type": "address"
                },
                {
                    "internalType": "uint256",
                    "name": "_value",
                    "type": "uint256"
                }
            ],
            "name": "redeem",
            "outputs": [],
            "stateMutability": "nonpayable",
            "type": "function"
        },
        {
            "inputs": [],
            "name": "redeemer",
            "outputs": [
                {
                    "internalType": "address",
                    "name": "",
                    "type": "address"
                }
            ],
            "stateMutability": "view",
            "type": "function"
        },
        {
            "inputs": [],
            "name": "renounceOwnership",
            "outputs": [],
            "stateMutability": "nonpayable",
            "type": "function"
        },
        {
            "inputs": [
                {
                    "internalType": "address",
                    "name": "newOwner",
                    "type": "address"
                }
            ],
            "name": "setOwner",
            "outputs": [],
            "stateMutability": "nonpayable",
            "type": "function"
        },
        {
            "inputs": [
                {
                    "internalType": "address",
                    "name": "_redeemer",
                    "type": "address"
                }
            ],
            "name": "setRedeemer",
            "outputs": [],
            "stateMutability": "nonpayable",
            "type": "function"
        },
        {
            "inputs": [],
            "name": "updateOwner",
            "outputs": [],
            "stateMutability": "nonpayable",
            "type": "function"
        }
    ],
    "bytecode": "0x608060405234801561001057600080fd5b50611a25806100206000396000f3fe608060405234801561001057600080fd5b50600436106100a95760003560e01c80636c8381f8116100715780636c8381f81461013c57806370a082311461015a578063715018a61461018a5780638129fc1c146101945780638da5cb5b1461019e578063bc5920ba146101bc576100a9565b80630e6dfcd5146100ae57806313af4035146100ca5780632ba29d38146100e65780633307ce841461010457806347e7ef2414610120575b600080fd5b6100c860048036038101906100c39190611115565b6101c6565b005b6100e460048036038101906100df919061108e565b6103d9565b005b6100ee610646565b6040516100fb91906113a6565b60405180910390f35b61011e6004803603810190610119919061108e565b61066c565b005b61013a60048036038101906101359190611168565b610747565b005b610144610864565b60405161015191906113a6565b60405180910390f35b610174600480360381019061016f91906110e8565b61088e565b60405161018191906115f3565b60405180910390f35b610192610920565b005b61019c610a78565b005b6101a6610bb6565b6040516101b391906113a6565b60405180910390f35b6101c4610be0565b005b6101ce610e4e565b73ffffffffffffffffffffffffffffffffffffffff16606760009054906101000a900473ffffffffffffffffffffffffffffffffffffffff1673ffffffffffffffffffffffffffffffffffffffff161461025d576040517f08c379a0000000000000000000000000000000000000000000000000000000008152600401610254906114b3565b60405180910390fd5b600073ffffffffffffffffffffffffffffffffffffffff168273ffffffffffffffffffffffffffffffffffffffff1614156102cd576040517f08c379a00000000000000000000000000000000000000000000000000000000081526004016102c4906114f3565b60405180910390fd5b8273ffffffffffffffffffffffffffffffffffffffff1663a9059cbb83836040518363ffffffff1660e01b81526004016103089291906113f8565b602060405180830381600087803b15801561032257600080fd5b505af1158015610336573d6000803e3d6000fd5b505050506040513d601f19601f8201168201806040525081019061035a91906110bb565b610399576040517f08c379a000000000000000000000000000000000000000000000000000000000815260040161039090611473565b60405180910390fd5b7f4bbf4935d1f6b64d8a4027bbb4f5c19ed2287926e8e473c5eb1ede9c11e17d2f8282856040516103cc93929190611421565b60405180910390a1505050565b6103e1610e4e565b73ffffffffffffffffffffffffffffffffffffffff16603360009054906101000a900473ffffffffffffffffffffffffffffffffffffffff1673ffffffffffffffffffffffffffffffffffffffff1614610470576040517f08c379a000000000000000000000000000000000000000000000000000000000815260040161046790611493565b60405180910390fd5b600073ffffffffffffffffffffffffffffffffffffffff168173ffffffffffffffffffffffffffffffffffffffff1614156104e0576040517f08c379a00000000000000000000000000000000000000000000000000000000081526004016104d790611573565b60405180910390fd5b603360009054906101000a900473ffffffffffffffffffffffffffffffffffffffff1673ffffffffffffffffffffffffffffffffffffffff168173ffffffffffffffffffffffffffffffffffffffff161415610571576040517f08c379a0000000000000000000000000000000000000000000000000000000008152600401610568906115d3565b60405180910390fd5b603460009054906101000a900473ffffffffffffffffffffffffffffffffffffffff1673ffffffffffffffffffffffffffffffffffffffff168173ffffffffffffffffffffffffffffffffffffffff161415610602576040517f08c379a00000000000000000000000000000000000000000000000000000000081526004016105f9906114d3565b60405180910390fd5b80603460006101000a81548173ffffffffffffffffffffffffffffffffffffffff021916908373ffffffffffffffffffffffffffffffffffffffff16021790555050565b606760009054906101000a900473ffffffffffffffffffffffffffffffffffffffff1681565b610674610e4e565b73ffffffffffffffffffffffffffffffffffffffff16603360009054906101000a900473ffffffffffffffffffffffffffffffffffffffff1673ffffffffffffffffffffffffffffffffffffffff1614610703576040517f08c379a00000000000000000000000000000000000000000000000000000000081526004016106fa90611493565b60405180910390fd5b80606760006101000a81548173ffffffffffffffffffffffffffffffffffffffff021916908373ffffffffffffffffffffffffffffffffffffffff16021790555050565b600081141561078b576040517f08c379a0000000000000000000000000000000000000000000000000000000008152600401610782906115b3565b60405180910390fd5b8173ffffffffffffffffffffffffffffffffffffffff166323b872dd6107af610e4e565b30846040518463ffffffff1660e01b81526004016107cf939291906113c1565b602060405180830381600087803b1580156107e957600080fd5b505af11580156107fd573d6000803e3d6000fd5b505050506040513d601f19601f8201168201806040525081019061082191906110bb565b610860576040517f08c379a000000000000000000000000000000000000000000000000000000000815260040161085790611473565b60405180910390fd5b5050565b6000603460009054906101000a900473ffffffffffffffffffffffffffffffffffffffff16905090565b60008173ffffffffffffffffffffffffffffffffffffffff166370a08231306040518263ffffffff1660e01b81526004016108c991906113a6565b60206040518083038186803b1580156108e157600080fd5b505afa1580156108f5573d6000803e3d6000fd5b505050506040513d601f19601f8201168201806040525081019061091991906111a8565b9050919050565b610928610e4e565b73ffffffffffffffffffffffffffffffffffffffff16603360009054906101000a900473ffffffffffffffffffffffffffffffffffffffff1673ffffffffffffffffffffffffffffffffffffffff16146109b7576040517f08c379a00000000000000000000000000000000000000000000000000000000081526004016109ae90611493565b60405180910390fd5b600073ffffffffffffffffffffffffffffffffffffffff16603360009054906101000a900473ffffffffffffffffffffffffffffffffffffffff1673ffffffffffffffffffffffffffffffffffffffff167f8be0079c531659141344cd1fd0a4f28419497f9722a3daafe3b4186f6b6457e060405160405180910390a36000603360006101000a81548173ffffffffffffffffffffffffffffffffffffffff021916908373ffffffffffffffffffffffffffffffffffffffff160217905550565b60008060019054906101000a900460ff16159050808015610aa95750600160008054906101000a900460ff1660ff16105b80610ad65750610ab830610e56565b158015610ad55750600160008054906101000a900460ff1660ff16145b5b610b15576040517f08c379a0000000000000000000000000000000000000000000000000000000008152600401610b0c90611513565b60405180910390fd5b60016000806101000a81548160ff021916908360ff1602179055508015610b52576001600060016101000a81548160ff0219169083151502179055505b610b5a610e79565b8015610bb35760008060016101000a81548160ff0219169083151502179055507f7f26b83ff96e1f2b6a682f133852f6798a09c465da95921460cefb38474024986001604051610baa9190611458565b60405180910390a15b50565b6000603360009054906101000a900473ffffffffffffffffffffffffffffffffffffffff16905090565b600073ffffffffffffffffffffffffffffffffffffffff16603460009054906101000a900473ffffffffffffffffffffffffffffffffffffffff1673ffffffffffffffffffffffffffffffffffffffff161415610c72576040517f08c379a0000000000000000000000000000000000000000000000000000000008152600401610c6990611553565b60405180910390fd5b610c7a610e4e565b73ffffffffffffffffffffffffffffffffffffffff16603460009054906101000a900473ffffffffffffffffffffffffffffffffffffffff1673ffffffffffffffffffffffffffffffffffffffff1614610d09576040517f08c379a0000000000000000000000000000000000000000000000000000000008152600401610d0090611533565b60405180910390fd5b603460009054906101000a900473ffffffffffffffffffffffffffffffffffffffff1673ffffffffffffffffffffffffffffffffffffffff16603360009054906101000a900473ffffffffffffffffffffffffffffffffffffffff1673ffffffffffffffffffffffffffffffffffffffff167f8be0079c531659141344cd1fd0a4f28419497f9722a3daafe3b4186f6b6457e060405160405180910390a3603460009054906101000a900473ffffffffffffffffffffffffffffffffffffffff16603360006101000a81548173ffffffffffffffffffffffffffffffffffffffff021916908373ffffffffffffffffffffffffffffffffffffffff1602179055506000603460006101000a81548173ffffffffffffffffffffffffffffffffffffffff021916908373ffffffffffffffffffffffffffffffffffffffff160217905550565b600033905090565b6000808273ffffffffffffffffffffffffffffffffffffffff163b119050919050565b600060019054906101000a900460ff16610ec8576040517f08c379a0000000000000000000000000000000000000000000000000000000008152600401610ebf90611593565b60405180910390fd5b610ed0610eda565b610ed8610f2b565b565b600060019054906101000a900460ff16610f29576040517f08c379a0000000000000000000000000000000000000000000000000000000008152600401610f2090611593565b60405180910390fd5b565b600060019054906101000a900460ff16610f7a576040517f08c379a0000000000000000000000000000000000000000000000000000000008152600401610f7190611593565b60405180910390fd5b6000610f84610e4e565b905080603360006101000a81548173ffffffffffffffffffffffffffffffffffffffff021916908373ffffffffffffffffffffffffffffffffffffffff1602179055508073ffffffffffffffffffffffffffffffffffffffff16600073ffffffffffffffffffffffffffffffffffffffff167f8be0079c531659141344cd1fd0a4f28419497f9722a3daafe3b4186f6b6457e060405160405180910390a350565b60008135905061103481611993565b92915050565b600081519050611049816119aa565b92915050565b60008135905061105e816119c1565b92915050565b600081359050611073816119d8565b92915050565b600081519050611088816119d8565b92915050565b6000602082840312156110a4576110a3611698565b5b60006110b284828501611025565b91505092915050565b6000602082840312156110d1576110d0611698565b5b60006110df8482850161103a565b91505092915050565b6000602082840312156110fe576110fd611698565b5b600061110c8482850161104f565b91505092915050565b60008060006060848603121561112e5761112d611698565b5b600061113c8682870161104f565b935050602061114d86828701611025565b925050604061115e86828701611064565b9150509250925092565b6000806040838503121561117f5761117e611698565b5b600061118d8582860161104f565b925050602061119e85828601611064565b9150509250929050565b6000602082840312156111be576111bd611698565b5b60006111cc84828501611079565b91505092915050565b6111de8161161f565b82525050565b6111ed81611686565b82525050565b6000611200600f8361160e565b915061120b8261169d565b602082019050919050565b6000611223602b8361160e565b915061122e826116c6565b604082019050919050565b600061124660208361160e565b915061125182611715565b602082019050919050565b600061126960258361160e565b91506112748261173e565b604082019050919050565b600061128c60208361160e565b91506112978261178d565b602082019050919050565b60006112af602e8361160e565b91506112ba826117b6565b604082019050919050565b60006112d260258361160e565b91506112dd82611805565b604082019050919050565b60006112f5602d8361160e565b915061130082611854565b604082019050919050565b600061131860208361160e565b9150611323826118a3565b602082019050919050565b600061133b602b8361160e565b9150611346826118cc565b604082019050919050565b600061135e601b8361160e565b91506113698261191b565b602082019050919050565b600061138160248361160e565b915061138c82611944565b604082019050919050565b6113a08161166f565b82525050565b60006020820190506113bb60008301846111d5565b92915050565b60006060820190506113d660008301866111d5565b6113e360208301856111d5565b6113f06040830184611397565b949350505050565b600060408201905061140d60008301856111d5565b61141a6020830184611397565b9392505050565b600060608201905061143660008301866111d5565b6114436020830185611397565b61145060408301846111d5565b949350505050565b600060208201905061146d60008301846111e4565b92915050565b6000602082019050818103600083015261148c816111f3565b9050919050565b600060208201905081810360008301526114ac81611216565b9050919050565b600060208201905081810360008301526114cc81611239565b9050919050565b600060208201905081810360008301526114ec8161125c565b9050919050565b6000602082019050818103600083015261150c8161127f565b9050919050565b6000602082019050818103600083015261152c816112a2565b9050919050565b6000602082019050818103600083015261154c816112c5565b9050919050565b6000602082019050818103600083015261156c816112e8565b9050919050565b6000602082019050818103600083015261158c8161130b565b9050919050565b600060208201905081810360008301526115ac8161132e565b9050919050565b600060208201905081810360008301526115cc81611351565b9050919050565b600060208201905081810360008301526115ec81611374565b9050919050565b60006020820190506116086000830184611397565b92915050565b600082825260208201905092915050565b600061162a8261164f565b9050919050565b60008115159050919050565b60006116488261161f565b9050919050565b600073ffffffffffffffffffffffffffffffffffffffff82169050919050565b6000819050919050565b600060ff82169050919050565b600061169182611679565b9050919050565b600080fd5b7f5472616e73666572206661696c65640000000000000000000000000000000000600082015250565b7f586164654f776e61626c65557067726164653a2063616c6c6572206973206e6f60008201527f7420746865206f776e6572000000000000000000000000000000000000000000602082015250565b7f50656e64696e67506f6f6c3a2063616c6c6572206e6f742072656465656d6572600082015250565b7f586164654f776e61626c65557067726164653a2073616d652061732063616e6460008201527f6964617465000000000000000000000000000000000000000000000000000000602082015250565b7f526563697069656e742063616e6e6f74206265207a65726f2061646472657373600082015250565b7f496e697469616c697a61626c653a20636f6e747261637420697320616c72656160008201527f647920696e697469616c697a6564000000000000000000000000000000000000602082015250565b7f586164654f776e61626c65557067726164653a206e6f7420746865206e65772060008201527f6f776e6572000000000000000000000000000000000000000000000000000000602082015250565b7f586164654f776e61626c65557067726164653a2063616e64696461746520697360008201527f207a65726f206164647265737300000000000000000000000000000000000000602082015250565b7f586164654f776e61626c65557067726164653a207a65726f2061646472657373600082015250565b7f496e697469616c697a61626c653a20636f6e7472616374206973206e6f74206960008201527f6e697469616c697a696e67000000000000000000000000000000000000000000602082015250565b7f50656e64696e67506f6f6c3a20496e76616c696420616d6f756e740000000000600082015250565b7f586164654f776e61626c65557067726164653a2073616d65206173206f72696760008201527f696e616c00000000000000000000000000000000000000000000000000000000602082015250565b61199c8161161f565b81146119a757600080fd5b50565b6119b381611631565b81146119be57600080fd5b50565b6119ca8161163d565b81146119d557600080fd5b50565b6119e18161166f565b81146119ec57600080fd5b5056fea2646970667358221220bc6d522c83312caa7a708e827ad5b3858b61660bb1b529ba8567199aa5f0535b64736f6c63430008060033",
    "linkReferences": {},
    "deployedLinkReferences": {}
}